{
  "contractName": "Election",
  "abi": [
    {
      "constant": true,
      "inputs": [],
      "name": "candidatesCount",
      "outputs": [
        {
          "name": "",
          "type": "uint256"
        }
      ],
      "payable": false,
      "stateMutability": "view",
      "type": "function",
      "signature": "0x2d35a8a2"
    },
    {
      "constant": true,
      "inputs": [
        {
          "name": "",
          "type": "uint256"
        }
      ],
      "name": "candidates",
      "outputs": [
        {
          "name": "id",
          "type": "uint256"
        },
        {
          "name": "name",
          "type": "string"
        },
        {
          "name": "voteCount",
          "type": "uint256"
        }
      ],
      "payable": false,
      "stateMutability": "view",
      "type": "function",
      "signature": "0x3477ee2e"
    },
    {
      "constant": true,
      "inputs": [],
      "name": "numberOfVoters",
      "outputs": [
        {
          "name": "",
          "type": "int256"
        }
      ],
      "payable": false,
      "stateMutability": "view",
      "type": "function",
      "signature": "0x9bcc3361"
    },
    {
      "constant": true,
      "inputs": [
        {
          "name": "",
          "type": "address"
        }
      ],
      "name": "voters",
      "outputs": [
        {
          "name": "",
          "type": "bool"
        }
      ],
      "payable": false,
      "stateMutability": "view",
      "type": "function",
      "signature": "0xa3ec138d"
    },
    {
      "constant": true,
      "inputs": [],
      "name": "maxNumberOfVotes",
      "outputs": [
        {
          "name": "",
          "type": "int256"
        }
      ],
      "payable": false,
      "stateMutability": "view",
      "type": "function",
      "signature": "0xd5846045"
    },
    {
      "constant": true,
      "inputs": [],
      "name": "admin",
      "outputs": [
        {
          "name": "",
          "type": "string"
        }
      ],
      "payable": false,
      "stateMutability": "view",
      "type": "function",
      "signature": "0xf851a440"
    },
    {
      "inputs": [],
      "payable": false,
      "stateMutability": "nonpayable",
      "type": "constructor",
      "signature": "constructor"
    },
    {
      "anonymous": false,
      "inputs": [
        {
          "indexed": true,
          "name": "_candidateId",
          "type": "uint256"
        }
      ],
      "name": "votedEvent",
      "type": "event",
      "signature": "0xfff3c900d938d21d0990d786e819f29b8d05c1ef587b462b939609625b684b16"
    },
    {
      "constant": false,
      "inputs": [
        {
          "name": "_candidateId",
          "type": "uint256"
        }
      ],
      "name": "vote",
      "outputs": [],
      "payable": false,
      "stateMutability": "nonpayable",
      "type": "function",
      "signature": "0x0121b93f"
    }
  ],
  "bytecode": "0x6060604052600080556002600155606060405190810160405280602a81526020017f307866373066653064656133656333616563316264373531386261343833333681526020017f63323034383464306630000000000000000000000000000000000000000000008152506005908051906020019061007f929190610251565b50341561008b57600080fd5b6100dc6040805190810160405280600c81526020017f4c756b6120506176636e696b00000000000000000000000000000000000000008152506101d4640100000000026104fa176401000000009004565b61012d6040805190810160405280600e81526020017f53616d6f2050726974727a6e696b0000000000000000000000000000000000008152506101d4640100000000026104fa176401000000009004565b61017e6040805190810160405280600f81526020017f4a616e657a20536564656c6a73616b00000000000000000000000000000000008152506101d4640100000000026104fa176401000000009004565b6101cf6040805190810160405280600c81526020017f4272696e61204a656861727400000000000000000000000000000000000000008152506101d4640100000000026104fa176401000000009004565b610376565b600460008154809291906001019190505550606060405190810160405280600454815260200182815260200160008152506003600060045481526020019081526020016000206000820151816000015560208201518160010190805190602001906102409291906102d1565b506040820151816002015590505050565b828054600181600116156101000203166002900490600052602060002090601f016020900481019282601f1061029257805160ff19168380011785556102c0565b828001600101855582156102c0579182015b828111156102bf5782518255916020019190600101906102a4565b5b5090506102cd9190610351565b5090565b828054600181600116156101000203166002900490600052602060002090601f016020900481019282601f1061031257805160ff1916838001178555610340565b82800160010185558215610340579182015b8281111561033f578251825591602001919060010190610324565b5b50905061034d9190610351565b5090565b61037391905b8082111561036f576000816000905550600101610357565b5090565b90565b610648806103856000396000f300606060405260043610610083576000357c0100000000000000000000000000000000000000000000000000000000900463ffffffff1680630121b93f146100885780632d35a8a2146100ab5780633477ee2e146100d45780639bcc33611461019b578063a3ec138d146101c4578063d584604514610215578063f851a4401461023e575b600080fd5b341561009357600080fd5b6100a960048080359060200190919050506102cc565b005b34156100b657600080fd5b6100be610401565b6040518082815260200191505060405180910390f35b34156100df57600080fd5b6100f56004808035906020019091905050610407565b604051808481526020018060200183815260200182810382528481815460018160011615610100020316600290048152602001915080546001816001161561010002031660029004801561018a5780601f1061015f5761010080835404028352916020019161018a565b820191906000526020600020905b81548152906001019060200180831161016d57829003601f168201915b505094505050505060405180910390f35b34156101a657600080fd5b6101ae610430565b6040518082815260200191505060405180910390f35b34156101cf57600080fd5b6101fb600480803573ffffffffffffffffffffffffffffffffffffffff16906020019091905050610436565b604051808215151515815260200191505060405180910390f35b341561022057600080fd5b610228610456565b6040518082815260200191505060405180910390f35b341561024957600080fd5b61025161045c565b6040518080602001828103825283818151815260200191508051906020019080838360005b83811015610291578082015181840152602081019050610276565b50505050905090810190601f1680156102be5780820380516001836020036101000a031916815260200191505b509250505060405180910390f35b600260003373ffffffffffffffffffffffffffffffffffffffff1673ffffffffffffffffffffffffffffffffffffffff16815260200190815260200160002060009054906101000a900460ff1615151561032557600080fd5b60008111801561033757506004548111155b151561034257600080fd5b6001600260003373ffffffffffffffffffffffffffffffffffffffff1673ffffffffffffffffffffffffffffffffffffffff16815260200190815260200160002060006101000a81548160ff02191690831515021790555060036000828152602001908152602001600020600201600081548092919060010191905055506000808154809291906001019190505550807ffff3c900d938d21d0990d786e819f29b8d05c1ef587b462b939609625b684b1660405160405180910390a250565b60045481565b600360205280600052604060002060009150905080600001549080600101908060020154905083565b60005481565b60026020528060005260406000206000915054906101000a900460ff1681565b60015481565b60058054600181600116156101000203166002900480601f0160208091040260200160405190810160405280929190818152602001828054600181600116156101000203166002900480156104f25780601f106104c7576101008083540402835291602001916104f2565b820191906000526020600020905b8154815290600101906020018083116104d557829003601f168201915b505050505081565b60046000815480929190600101919050555060606040519081016040528060045481526020018281526020016000815250600360006004548152602001908152602001600020600082015181600001556020820151816001019080519060200190610566929190610577565b506040820151816002015590505050565b828054600181600116156101000203166002900490600052602060002090601f016020900481019282601f106105b857805160ff19168380011785556105e6565b828001600101855582156105e6579182015b828111156105e55782518255916020019190600101906105ca565b5b5090506105f391906105f7565b5090565b61061991905b808211156106155760008160009055506001016105fd565b5090565b905600a165627a7a72305820658b92559bd557a65f59b2ebb01616a02be803270eb207156e376fc4258bf0600029",
  "source": "pragma solidity 0.4.20;\r\n\r\ncontract Election {\r\n    // Model a Candidate\r\n    struct Candidate {\r\n        uint id;\r\n        string name;\r\n        uint voteCount;\r\n    }\r\n\r\n    /*struct Admin {\r\n        string name;\r\n    }*/\r\n    int public numberOfVoters = 0;\r\n    int public maxNumberOfVotes = 2;\r\n\r\n    // Store accounts that have voted\r\n    mapping(address => bool) public voters;\r\n    // Store Candidates\r\n    // Fetch Candidate\r\n    mapping(uint => Candidate) public candidates;\r\n    //Mapping for admins\r\n    //mapping(uint => Admin) public admins;\r\n    // Store Candidates Count\r\n    uint public candidatesCount;\r\n    // Store Admin Count\r\n    string public admin = \"0xf70fe0dea3ec3aec1bd7518ba48336c20484d0f0\";\r\n\r\n    // voted event\r\n    event votedEvent (\r\n        uint indexed _candidateId\r\n    );\r\n\r\n    function Election () public {\r\n        // voting candidates\r\n        addCandidate(\"Luka Pavcnik\");\r\n        addCandidate(\"Samo Pritrznik\");\r\n        addCandidate(\"Janez Sedeljsak\");\r\n        addCandidate(\"Brina Jehart\");\r\n        // admin account\r\n        //addAdmin(\"0xf70fe0dea3ec3aec1bd7518ba48336c20484d0f0\");\r\n    }\r\n\r\n    /*function addAdmin (string _id) private {\r\n        adminsCount ++;\r\n        admins[adminsCount] = Admin(_id);\r\n    }*/\r\n\r\n    function addCandidate (string _name) private {\r\n        candidatesCount ++;\r\n        candidates[candidatesCount] = Candidate(candidatesCount, _name, 0);\r\n    }\r\n\r\n    function vote (uint _candidateId) public {\r\n        // require that they haven't voted before\r\n        require(!voters[msg.sender]);\r\n\r\n        // require a valid candidate\r\n        require(_candidateId > 0 && _candidateId <= candidatesCount);\r\n\r\n        // record that voter has voted\r\n        voters[msg.sender] = true;\r\n\r\n        // update candidate vote Count\r\n        candidates[_candidateId].voteCount ++;\r\n\r\n        numberOfVoters++;\r\n\r\n        // trigger voted event\r\n        votedEvent(_candidateId);\r\n    }\r\n}\r\n",
  "sourcePath": "C:/Users/PC/Documents/ethereum/election/contracts/Election.sol",
  "compiler": {
    "name": "solc",
    "version": "0.4.20+commit.3155dd80.Emscripten.clang"
  },
  "schemaVersion": "3.0.6",
  "updatedAt": "2019-04-18T07:16:10.492Z",
  "devdoc": {
    "methods": {}
  },
  "userdoc": {
    "methods": {}
  }
}